{
  "_format": "hh-sol-artifact-1",
  "contractName": "PersonalWallet",
  "sourceName": "contracts/banking.sol",
  "abi": [
    {
      "inputs": [],
      "stateMutability": "nonpayable",
      "type": "constructor"
    },
    {
      "anonymous": false,
      "inputs": [
        {
          "indexed": true,
          "internalType": "address",
          "name": "previousOwner",
          "type": "address"
        },
        {
          "indexed": true,
          "internalType": "address",
          "name": "newOwner",
          "type": "address"
        }
      ],
      "name": "OwnershipTransferred",
      "type": "event"
    },
    {
      "inputs": [
        {
          "internalType": "uint256",
          "name": "_value",
          "type": "uint256"
        }
      ],
      "name": "depositMoney",
      "outputs": [],
      "stateMutability": "payable",
      "type": "function"
    },
    {
      "inputs": [],
      "name": "getWalletBalance",
      "outputs": [
        {
          "internalType": "uint256",
          "name": "",
          "type": "uint256"
        }
      ],
      "stateMutability": "view",
      "type": "function"
    },
    {
      "inputs": [
        {
          "internalType": "address",
          "name": "newOwner",
          "type": "address"
        }
      ],
      "name": "sellwallet",
      "outputs": [],
      "stateMutability": "nonpayable",
      "type": "function"
    },
    {
      "inputs": [
        {
          "internalType": "address payable",
          "name": "_to",
          "type": "address"
        },
        {
          "internalType": "uint256",
          "name": "_total",
          "type": "uint256"
        }
      ],
      "name": "sendMoney",
      "outputs": [],
      "stateMutability": "nonpayable",
      "type": "function"
    },
    {
      "inputs": [
        {
          "internalType": "string",
          "name": "_name",
          "type": "string"
        }
      ],
      "name": "setWalletName",
      "outputs": [],
      "stateMutability": "nonpayable",
      "type": "function"
    },
    {
      "inputs": [
        {
          "internalType": "address",
          "name": "",
          "type": "address"
        }
      ],
      "name": "walletBalance",
      "outputs": [
        {
          "internalType": "uint256",
          "name": "",
          "type": "uint256"
        }
      ],
      "stateMutability": "view",
      "type": "function"
    },
    {
      "inputs": [],
      "name": "walletName",
      "outputs": [
        {
          "internalType": "string",
          "name": "",
          "type": "string"
        }
      ],
      "stateMutability": "view",
      "type": "function"
    },
    {
      "inputs": [],
      "name": "walletOwner",
      "outputs": [
        {
          "internalType": "address",
          "name": "",
          "type": "address"
        }
      ],
      "stateMutability": "view",
      "type": "function"
    }
  ],
  "bytecode": "0x60806040523480156200001157600080fd5b506040518060400160405280600d81526020017f46616d696c792057616c6c657400000000000000000000000000000000000000815250600190805190602001906200005f929190620000a6565b50336000806101000a81548173ffffffffffffffffffffffffffffffffffffffff021916908373ffffffffffffffffffffffffffffffffffffffff160217905550620001bb565b828054620000b49062000156565b90600052602060002090601f016020900481019282620000d8576000855562000124565b82601f10620000f357805160ff191683800117855562000124565b8280016001018555821562000124579182015b828111156200012357825182559160200191906001019062000106565b5b50905062000133919062000137565b5090565b5b808211156200015257600081600090555060010162000138565b5090565b600060028204905060018216806200016f57607f821691505b602082108114156200018657620001856200018c565b5b50919050565b7f4e487b7100000000000000000000000000000000000000000000000000000000600052602260045260246000fd5b610f0880620001cb6000396000f3fe60806040526004361061007b5760003560e01c8063cf9cd8f81161004e578063cf9cd8f81461011d578063ee4ae2c91461015a578063f2068cb814610183578063ff627136146101ac5761007b565b80631ae879e814610080578063329a27e7146100ab578063ae18c52b146100d6578063cf8d8ca0146100f2575b600080fd5b34801561008c57600080fd5b506100956101d5565b6040516100a291906109fe565b60405180910390f35b3480156100b757600080fd5b506100c06101f9565b6040516100cd9190610abb565b60405180910390f35b6100f060048036038101906100eb91906108ee565b610240565b005b3480156100fe57600080fd5b506101076102dd565b6040516101149190610a19565b60405180910390f35b34801561012957600080fd5b50610144600480360381019061013f9190610838565b61036b565b6040516101519190610abb565b60405180910390f35b34801561016657600080fd5b50610181600480360381019061017c9190610865565b610383565b005b34801561018f57600080fd5b506101aa60048036038101906101a59190610838565b6104a6565b005b3480156101b857600080fd5b506101d360048036038101906101ce91906108a5565b61057a565b005b60008054906101000a900473ffffffffffffffffffffffffffffffffffffffff1681565b6000600260003373ffffffffffffffffffffffffffffffffffffffff1673ffffffffffffffffffffffffffffffffffffffff16815260200190815260200160002054905090565b6000811415610284576040517f08c379a000000000000000000000000000000000000000000000000000000000815260040161027b90610a3b565b60405180910390fd5b80600260003373ffffffffffffffffffffffffffffffffffffffff1673ffffffffffffffffffffffffffffffffffffffff16815260200190815260200160002060008282546102d39190610b48565b9250508190555050565b600180546102ea90610c62565b80601f016020809104026020016040519081016040528092919081815260200182805461031690610c62565b80156103635780601f1061033857610100808354040283529160200191610363565b820191906000526020600020905b81548152906001019060200180831161034657829003601f168201915b505050505081565b60026020528060005260406000206000915090505481565b600260003373ffffffffffffffffffffffffffffffffffffffff1673ffffffffffffffffffffffffffffffffffffffff16815260200190815260200160002054811115610405576040517f08c379a00000000000000000000000000000000000000000000000000000000081526004016103fc90610a7b565b60405180910390fd5b80600260003373ffffffffffffffffffffffffffffffffffffffff1673ffffffffffffffffffffffffffffffffffffffff16815260200190815260200160002060008282546104549190610b9e565b925050819055508173ffffffffffffffffffffffffffffffffffffffff166108fc829081150290604051600060405180830381858888f193505050501580156104a1573d6000803e3d6000fd5b505050565b600073ffffffffffffffffffffffffffffffffffffffff168173ffffffffffffffffffffffffffffffffffffffff1614156104e057600080fd5b60008054906101000a900473ffffffffffffffffffffffffffffffffffffffff1673ffffffffffffffffffffffffffffffffffffffff163373ffffffffffffffffffffffffffffffffffffffff161461056e576040517f08c379a000000000000000000000000000000000000000000000000000000000815260040161056590610a9b565b60405180910390fd5b61057781610622565b50565b60008054906101000a900473ffffffffffffffffffffffffffffffffffffffff1673ffffffffffffffffffffffffffffffffffffffff163373ffffffffffffffffffffffffffffffffffffffff1614610608576040517f08c379a00000000000000000000000000000000000000000000000000000000081526004016105ff90610a5b565b60405180910390fd5b806001908051906020019061061e9291906106e6565b5050565b60008060009054906101000a900473ffffffffffffffffffffffffffffffffffffffff169050816000806101000a81548173ffffffffffffffffffffffffffffffffffffffff021916908373ffffffffffffffffffffffffffffffffffffffff1602179055508173ffffffffffffffffffffffffffffffffffffffff168173ffffffffffffffffffffffffffffffffffffffff167f8be0079c531659141344cd1fd0a4f28419497f9722a3daafe3b4186f6b6457e060405160405180910390a35050565b8280546106f290610c62565b90600052602060002090601f016020900481019282610714576000855561075b565b82601f1061072d57805160ff191683800117855561075b565b8280016001018555821561075b579182015b8281111561075a57825182559160200191906001019061073f565b5b509050610768919061076c565b5090565b5b8082111561078557600081600090555060010161076d565b5090565b600061079c61079784610afb565b610ad6565b9050828152602081018484840111156107b8576107b7610d57565b5b6107c3848285610c20565b509392505050565b6000813590506107da81610e8d565b92915050565b6000813590506107ef81610ea4565b92915050565b600082601f83011261080a57610809610d52565b5b813561081a848260208601610789565b91505092915050565b60008135905061083281610ebb565b92915050565b60006020828403121561084e5761084d610d61565b5b600061085c848285016107cb565b91505092915050565b6000806040838503121561087c5761087b610d61565b5b600061088a858286016107e0565b925050602061089b85828601610823565b9150509250929050565b6000602082840312156108bb576108ba610d61565b5b600082013567ffffffffffffffff8111156108d9576108d8610d5c565b5b6108e5848285016107f5565b91505092915050565b60006020828403121561090457610903610d61565b5b600061091284828501610823565b91505092915050565b61092481610bd2565b82525050565b600061093582610b2c565b61093f8185610b37565b935061094f818560208601610c2f565b61095881610d66565b840191505092915050565b6000610970602283610b37565b915061097b82610d77565b604082019050919050565b6000610993601a83610b37565b915061099e82610dc6565b602082019050919050565b60006109b6602883610b37565b91506109c182610def565b604082019050919050565b60006109d9602683610b37565b91506109e482610e3e565b604082019050919050565b6109f881610c16565b82525050565b6000602082019050610a13600083018461091b565b92915050565b60006020820190508181036000830152610a33818461092a565b905092915050565b60006020820190508181036000830152610a5481610963565b9050919050565b60006020820190508181036000830152610a7481610986565b9050919050565b60006020820190508181036000830152610a94816109a9565b9050919050565b60006020820190508181036000830152610ab4816109cc565b9050919050565b6000602082019050610ad060008301846109ef565b92915050565b6000610ae0610af1565b9050610aec8282610c94565b919050565b6000604051905090565b600067ffffffffffffffff821115610b1657610b15610d23565b5b610b1f82610d66565b9050602081019050919050565b600081519050919050565b600082825260208201905092915050565b6000610b5382610c16565b9150610b5e83610c16565b9250827fffffffffffffffffffffffffffffffffffffffffffffffffffffffffffffffff03821115610b9357610b92610cc5565b5b828201905092915050565b6000610ba982610c16565b9150610bb483610c16565b925082821015610bc757610bc6610cc5565b5b828203905092915050565b6000610bdd82610bf6565b9050919050565b6000610bef82610bf6565b9050919050565b600073ffffffffffffffffffffffffffffffffffffffff82169050919050565b6000819050919050565b82818337600083830152505050565b60005b83811015610c4d578082015181840152602081019050610c32565b83811115610c5c576000848401525b50505050565b60006002820490506001821680610c7a57607f821691505b60208210811415610c8e57610c8d610cf4565b5b50919050565b610c9d82610d66565b810181811067ffffffffffffffff82111715610cbc57610cbb610d23565b5b80604052505050565b7f4e487b7100000000000000000000000000000000000000000000000000000000600052601160045260246000fd5b7f4e487b7100000000000000000000000000000000000000000000000000000000600052602260045260246000fd5b7f4e487b7100000000000000000000000000000000000000000000000000000000600052604160045260246000fd5b600080fd5b600080fd5b600080fd5b600080fd5b6000601f19601f8301169050919050565b7f596f752073686f756c64206465706f736974206d6f7265207468616e207a657260008201527f6f2e000000000000000000000000000000000000000000000000000000000000602082015250565b7f596f752073686f756c642062652077616c6c6574206f776e6572000000000000600082015250565b7f596f7520646f6e74206861766520656e6f7567682062616c616e636520746f2060008201527f7769746864726177000000000000000000000000000000000000000000000000602082015250565b7f596f752073686f756c64206265206f776e657220746f2073656c6c207468652060008201527f77616c6c65740000000000000000000000000000000000000000000000000000602082015250565b610e9681610bd2565b8114610ea157600080fd5b50565b610ead81610be4565b8114610eb857600080fd5b50565b610ec481610c16565b8114610ecf57600080fd5b5056fea26469706673582212208a003b3023d9994336d41d283fa0caa7b586b35282654d3ac0ac9be9200943c564736f6c63430008070033",
  "linkReferences": {},
  "deployedLinkReferences": {}
}